{
  "_format": "hh-sol-artifact-1",
  "contractName": "SnapshotMerkleDistribution",
  "sourceName": "contracts/SnapshotMerkleDistribution.sol",
  "abi": [
    {
      "inputs": [],
      "stateMutability": "nonpayable",
      "type": "constructor"
    },
    {
      "inputs": [
        {
          "internalType": "address",
          "name": "owner",
          "type": "address"
        }
      ],
      "name": "OwnableInvalidOwner",
      "type": "error"
    },
    {
      "inputs": [
        {
          "internalType": "address",
          "name": "account",
          "type": "address"
        }
      ],
      "name": "OwnableUnauthorizedAccount",
      "type": "error"
    },
    {
      "inputs": [],
      "name": "ReentrancyGuardReentrantCall",
      "type": "error"
    },
    {
      "anonymous": false,
      "inputs": [
        {
          "indexed": true,
          "internalType": "address",
          "name": "previousOwner",
          "type": "address"
        },
        {
          "indexed": true,
          "internalType": "address",
          "name": "newOwner",
          "type": "address"
        }
      ],
      "name": "OwnershipTransferred",
      "type": "event"
    },
    {
      "inputs": [],
      "name": "activate",
      "outputs": [],
      "stateMutability": "nonpayable",
      "type": "function"
    },
    {
      "inputs": [],
      "name": "contractIsLocked",
      "outputs": [
        {
          "internalType": "bool",
          "name": "",
          "type": "bool"
        }
      ],
      "stateMutability": "view",
      "type": "function"
    },
    {
      "inputs": [],
      "name": "deactivate",
      "outputs": [],
      "stateMutability": "nonpayable",
      "type": "function"
    },
    {
      "inputs": [],
      "name": "emergencyWithdrawalToMultiSignature",
      "outputs": [],
      "stateMutability": "nonpayable",
      "type": "function"
    },
    {
      "inputs": [
        {
          "internalType": "address",
          "name": "_walletAddress",
          "type": "address"
        }
      ],
      "name": "getClaimedStatusOfWallet",
      "outputs": [
        {
          "internalType": "bool",
          "name": "",
          "type": "bool"
        }
      ],
      "stateMutability": "view",
      "type": "function"
    },
    {
      "inputs": [
        {
          "internalType": "address",
          "name": "_walletAddress",
          "type": "address"
        }
      ],
      "name": "getUserAgreementOfWallet",
      "outputs": [
        {
          "internalType": "string",
          "name": "",
          "type": "string"
        }
      ],
      "stateMutability": "view",
      "type": "function"
    },
    {
      "inputs": [
        {
          "internalType": "string",
          "name": "_userAgreement",
          "type": "string"
        },
        {
          "internalType": "bytes32[]",
          "name": "_merkleProof",
          "type": "bytes32[]"
        }
      ],
      "name": "goToValhalla",
      "outputs": [],
      "stateMutability": "nonpayable",
      "type": "function"
    },
    {
      "inputs": [],
      "name": "isRefundActive",
      "outputs": [
        {
          "internalType": "bool",
          "name": "",
          "type": "bool"
        }
      ],
      "stateMutability": "view",
      "type": "function"
    },
    {
      "inputs": [],
      "name": "lockContract",
      "outputs": [],
      "stateMutability": "nonpayable",
      "type": "function"
    },
    {
      "inputs": [],
      "name": "lockInPerpetuity",
      "outputs": [],
      "stateMutability": "nonpayable",
      "type": "function"
    },
    {
      "inputs": [],
      "name": "lockedInPerpetuity",
      "outputs": [
        {
          "internalType": "bool",
          "name": "",
          "type": "bool"
        }
      ],
      "stateMutability": "view",
      "type": "function"
    },
    {
      "inputs": [],
      "name": "merkleRoot",
      "outputs": [
        {
          "internalType": "bytes32",
          "name": "",
          "type": "bytes32"
        }
      ],
      "stateMutability": "view",
      "type": "function"
    },
    {
      "inputs": [],
      "name": "multisignatureWallet",
      "outputs": [
        {
          "internalType": "address",
          "name": "",
          "type": "address"
        }
      ],
      "stateMutability": "view",
      "type": "function"
    },
    {
      "inputs": [],
      "name": "nftContract",
      "outputs": [
        {
          "internalType": "contract ERC721Enumerable",
          "name": "",
          "type": "address"
        }
      ],
      "stateMutability": "view",
      "type": "function"
    },
    {
      "inputs": [],
      "name": "originalBalance",
      "outputs": [
        {
          "internalType": "uint256",
          "name": "",
          "type": "uint256"
        }
      ],
      "stateMutability": "view",
      "type": "function"
    },
    {
      "inputs": [],
      "name": "owner",
      "outputs": [
        {
          "internalType": "address",
          "name": "",
          "type": "address"
        }
      ],
      "stateMutability": "view",
      "type": "function"
    },
    {
      "inputs": [],
      "name": "renounceOwnership",
      "outputs": [],
      "stateMutability": "nonpayable",
      "type": "function"
    },
    {
      "inputs": [],
      "name": "saveOriginalBalance",
      "outputs": [],
      "stateMutability": "nonpayable",
      "type": "function"
    },
    {
      "inputs": [
        {
          "internalType": "bytes32",
          "name": "_merkleRoot",
          "type": "bytes32"
        }
      ],
      "name": "setMerkleRoot",
      "outputs": [],
      "stateMutability": "nonpayable",
      "type": "function"
    },
    {
      "inputs": [
        {
          "internalType": "address",
          "name": "_multiSigWallet",
          "type": "address"
        }
      ],
      "name": "setMutiSignatureWallet",
      "outputs": [],
      "stateMutability": "nonpayable",
      "type": "function"
    },
    {
      "inputs": [
        {
          "internalType": "address",
          "name": "_nftContract",
          "type": "address"
        }
      ],
      "name": "setNFTContract",
      "outputs": [],
      "stateMutability": "nonpayable",
      "type": "function"
    },
    {
      "inputs": [
        {
          "internalType": "address",
          "name": "newOwner",
          "type": "address"
        }
      ],
      "name": "transferOwnership",
      "outputs": [],
      "stateMutability": "nonpayable",
      "type": "function"
    },
    {
      "inputs": [
        {
          "internalType": "address",
          "name": "",
          "type": "address"
        }
      ],
      "name": "userAgreements",
      "outputs": [
        {
          "internalType": "string",
          "name": "",
          "type": "string"
        }
      ],
      "stateMutability": "view",
      "type": "function"
    },
    {
      "inputs": [
        {
          "internalType": "address",
          "name": "",
          "type": "address"
        }
      ],
      "name": "walletHasClaimedSnapshot",
      "outputs": [
        {
          "internalType": "bool",
          "name": "",
          "type": "bool"
        }
      ],
      "stateMutability": "view",
      "type": "function"
    },
    {
      "stateMutability": "payable",
      "type": "receive"
    }
  ],
  "bytecode": "0x60806040526000600560006101000a81548160ff0219169083151502179055506000600560016101000a81548160ff0219169083151502179055506000600560026101000a81548160ff0219169083151502179055503480156200006257600080fd5b50336001600081905550600073ffffffffffffffffffffffffffffffffffffffff168173ffffffffffffffffffffffffffffffffffffffff1603620000e15760006040517f1e4fbdf7000000000000000000000000000000000000000000000000000000008152600401620000d8919062000204565b60405180910390fd5b620000f281620000f960201b60201c565b5062000221565b6000600160009054906101000a900473ffffffffffffffffffffffffffffffffffffffff16905081600160006101000a81548173ffffffffffffffffffffffffffffffffffffffff021916908373ffffffffffffffffffffffffffffffffffffffff1602179055508173ffffffffffffffffffffffffffffffffffffffff168173ffffffffffffffffffffffffffffffffffffffff167f8be0079c531659141344cd1fd0a4f28419497f9722a3daafe3b4186f6b6457e060405160405180910390a35050565b600073ffffffffffffffffffffffffffffffffffffffff82169050919050565b6000620001ec82620001bf565b9050919050565b620001fe81620001df565b82525050565b60006020820190506200021b6000830184620001f3565b92915050565b6124ec80620002316000396000f3fe60806040526004361061014f5760003560e01c8063960c08a8116100b6578063d56d229d1161006f578063d56d229d14610417578063dce24d2e14610442578063e1c106ff1461046d578063e8253ab0146104aa578063f2fde38b146104c1578063fbb3e5ca146104ea57610156565b8063960c08a81461031b578063a390446114610332578063a7ccabdf1461035d578063ad7fa75114610386578063bf87d69c146103b1578063d4d3eba7146103ee57610156565b8063715018a611610108578063715018a61461021f578063753868e3146102365780637cb647591461024d578063828af1c01461027657806388ad220e146102b35780638da5cb5b146102f057610156565b80630f15f4c01461015b578063138da4bb14610172578063267f39ab1461019b5780632eb4a7ab146101c657806351b42b00146101f15780635e76ec091461020857610156565b3661015657005b600080fd5b34801561016757600080fd5b50610170610515565b005b34801561017e57600080fd5b5061019960048036038101906101949190611545565b61053a565b005b3480156101a757600080fd5b506101b06105dc565b6040516101bd919061158d565b60405180910390f35b3480156101d257600080fd5b506101db6105ef565b6040516101e891906115c1565b60405180910390f35b3480156101fd57600080fd5b506102066105f5565b005b34801561021457600080fd5b5061021d61061a565b005b34801561022b57600080fd5b506102346107e0565b005b34801561024257600080fd5b5061024b6107f4565b005b34801561025957600080fd5b50610274600480360381019061026f9190611608565b610819565b005b34801561028257600080fd5b5061029d60048036038101906102989190611545565b610881565b6040516102aa91906116c5565b60405180910390f35b3480156102bf57600080fd5b506102da60048036038101906102d59190611545565b610921565b6040516102e791906116c5565b60405180910390f35b3480156102fc57600080fd5b506103056109f2565b60405161031291906116f6565b60405180910390f35b34801561032757600080fd5b50610330610a1c565b005b34801561033e57600080fd5b50610347610a41565b604051610354919061158d565b60405180910390f35b34801561036957600080fd5b50610384600480360381019061037f9190611545565b610a54565b005b34801561039257600080fd5b5061039b610b0f565b6040516103a8919061158d565b60405180910390f35b3480156103bd57600080fd5b506103d860048036038101906103d39190611545565b610b22565b6040516103e5919061158d565b60405180910390f35b3480156103fa57600080fd5b50610415600480360381019061041091906118a6565b610b78565b005b34801561042357600080fd5b5061042c611120565b6040516104399190611981565b60405180910390f35b34801561044e57600080fd5b50610457611146565b60405161046491906119b5565b60405180910390f35b34801561047957600080fd5b50610494600480360381019061048f9190611545565b61114c565b6040516104a1919061158d565b60405180910390f35b3480156104b657600080fd5b506104bf61116c565b005b3480156104cd57600080fd5b506104e860048036038101906104e39190611545565b6111d3565b005b3480156104f657600080fd5b506104ff611259565b60405161050c91906116f6565b60405180910390f35b61051d61127f565b6001600560006101000a81548160ff021916908315150217905550565b61054261127f565b60001515600560019054906101000a900460ff16151514610598576040517f08c379a000000000000000000000000000000000000000000000000000000000815260040161058f90611a1c565b60405180910390fd5b80600560036101000a81548173ffffffffffffffffffffffffffffffffffffffff021916908373ffffffffffffffffffffffffffffffffffffffff16021790555050565b600560009054906101000a900460ff1681565b60065481565b6105fd61127f565b6000600560006101000a81548160ff021916908315150217905550565b61062261127f565b60001515600560029054906101000a900460ff16151514610678576040517f08c379a000000000000000000000000000000000000000000000000000000000815260040161066f90611aae565b60405180910390fd5b6000479050600073ffffffffffffffffffffffffffffffffffffffff16600560039054906101000a900473ffffffffffffffffffffffffffffffffffffffff1673ffffffffffffffffffffffffffffffffffffffff160361070e576040517f08c379a000000000000000000000000000000000000000000000000000000000815260040161070590611b1a565b60405180910390fd5b6000600560039054906101000a900473ffffffffffffffffffffffffffffffffffffffff1673ffffffffffffffffffffffffffffffffffffffff168260405161075690611b6b565b60006040518083038185875af1925050503d8060008114610793576040519150601f19603f3d011682016040523d82523d6000602084013e610798565b606091505b50509050806107dc576040517f08c379a00000000000000000000000000000000000000000000000000000000081526004016107d390611bcc565b60405180910390fd5b5050565b6107e861127f565b6107f26000611306565b565b6107fc61127f565b6001600560016101000a81548160ff021916908315150217905550565b61082161127f565b60001515600560019054906101000a900460ff16151514610877576040517f08c379a000000000000000000000000000000000000000000000000000000000815260040161086e90611a1c565b60405180910390fd5b8060068190555050565b600460205280600052604060002060009150905080546108a090611c1b565b80601f01602080910402602001604051908101604052809291908181526020018280546108cc90611c1b565b80156109195780601f106108ee57610100808354040283529160200191610919565b820191906000526020600020905b8154815290600101906020018083116108fc57829003601f168201915b505050505081565b6060600460008373ffffffffffffffffffffffffffffffffffffffff1673ffffffffffffffffffffffffffffffffffffffff168152602001908152602001600020805461096d90611c1b565b80601f016020809104026020016040519081016040528092919081815260200182805461099990611c1b565b80156109e65780601f106109bb576101008083540402835291602001916109e6565b820191906000526020600020905b8154815290600101906020018083116109c957829003601f168201915b50505050509050919050565b6000600160009054906101000a900473ffffffffffffffffffffffffffffffffffffffff16905090565b610a2461127f565b6001600560026101000a81548160ff021916908315150217905550565b600560029054906101000a900460ff1681565b610a5c61127f565b600073ffffffffffffffffffffffffffffffffffffffff168173ffffffffffffffffffffffffffffffffffffffff1603610acb576040517f08c379a0000000000000000000000000000000000000000000000000000000008152600401610ac290611c98565b60405180910390fd5b80600260006101000a81548173ffffffffffffffffffffffffffffffffffffffff021916908373ffffffffffffffffffffffffffffffffffffffff16021790555050565b600560019054906101000a900460ff1681565b6000600360008373ffffffffffffffffffffffffffffffffffffffff1673ffffffffffffffffffffffffffffffffffffffff16815260200190815260200160002060009054906101000a900460ff169050919050565b610b806113cc565b600560009054906101000a900460ff16610bcf576040517f08c379a0000000000000000000000000000000000000000000000000000000008152600401610bc690611d04565b60405180910390fd5b60004711610c12576040517f08c379a0000000000000000000000000000000000000000000000000000000008152600401610c0990611d70565b60405180910390fd5b60001515600360003373ffffffffffffffffffffffffffffffffffffffff1673ffffffffffffffffffffffffffffffffffffffff16815260200190815260200160002060009054906101000a900460ff16151514610ca5576040517f08c379a0000000000000000000000000000000000000000000000000000000008152600401610c9c90611e02565b60405180910390fd5b600060075411610cea576040517f08c379a0000000000000000000000000000000000000000000000000000000008152600401610ce190611e6e565b60405180910390fd5b6000600260009054906101000a900473ffffffffffffffffffffffffffffffffffffffff1673ffffffffffffffffffffffffffffffffffffffff166318160ddd6040518163ffffffff1660e01b8152600401602060405180830381865afa158015610d59573d6000803e3d6000fd5b505050506040513d601f19601f82011682018060405250810190610d7d9190611eba565b905060008111610dc2576040517f08c379a0000000000000000000000000000000000000000000000000000000008152600401610db990611f33565b60405180910390fd5b6000600260009054906101000a900473ffffffffffffffffffffffffffffffffffffffff1673ffffffffffffffffffffffffffffffffffffffff166370a08231336040518263ffffffff1660e01b8152600401610e1f91906116f6565b602060405180830381865afa158015610e3c573d6000803e3d6000fd5b505050506040513d601f19601f82011682018060405250810190610e609190611eba565b905060008111610ea5576040517f08c379a0000000000000000000000000000000000000000000000000000000008152600401610e9c90611f9f565b60405180910390fd5b60008282600754610eb69190611fee565b610ec0919061205f565b905060008111610f05576040517f08c379a0000000000000000000000000000000000000000000000000000000008152600401610efc906120dc565b60405180910390fd5b600033604051602001610f189190612144565b604051602081830303815290604052805190602001209050610f7e868680806020026020016040519081016040528093929190818152602001838360200280828437600081840152601f19601f8201169050808301925050505050505060065483611412565b610fbd576040517f08c379a0000000000000000000000000000000000000000000000000000000008152600401610fb4906121ab565b60405180910390fd5b60003373ffffffffffffffffffffffffffffffffffffffff1683604051610fe390611b6b565b60006040518083038185875af1925050503d8060008114611020576040519150601f19603f3d011682016040523d82523d6000602084013e611025565b606091505b5050905080611069576040517f08c379a000000000000000000000000000000000000000000000000000000000815260040161106090611bcc565b60405180910390fd5b6001600360003373ffffffffffffffffffffffffffffffffffffffff1673ffffffffffffffffffffffffffffffffffffffff16815260200190815260200160002060006101000a81548160ff02191690831515021790555087600460003373ffffffffffffffffffffffffffffffffffffffff1673ffffffffffffffffffffffffffffffffffffffff168152602001908152602001600020908161110d919061236d565b50505050505061111b611429565b505050565b600260009054906101000a900473ffffffffffffffffffffffffffffffffffffffff1681565b60075481565b60036020528060005260406000206000915054906101000a900460ff1681565b61117461127f565b60001515600560019054906101000a900460ff161515146111ca576040517f08c379a00000000000000000000000000000000000000000000000000000000081526004016111c190611a1c565b60405180910390fd5b47600781905550565b6111db61127f565b600073ffffffffffffffffffffffffffffffffffffffff168173ffffffffffffffffffffffffffffffffffffffff160361124d5760006040517f1e4fbdf700000000000000000000000000000000000000000000000000000000815260040161124491906116f6565b60405180910390fd5b61125681611306565b50565b600560039054906101000a900473ffffffffffffffffffffffffffffffffffffffff1681565b611287611433565b73ffffffffffffffffffffffffffffffffffffffff166112a56109f2565b73ffffffffffffffffffffffffffffffffffffffff1614611304576112c8611433565b6040517f118cdaa70000000000000000000000000000000000000000000000000000000081526004016112fb91906116f6565b60405180910390fd5b565b6000600160009054906101000a900473ffffffffffffffffffffffffffffffffffffffff16905081600160006101000a81548173ffffffffffffffffffffffffffffffffffffffff021916908373ffffffffffffffffffffffffffffffffffffffff1602179055508173ffffffffffffffffffffffffffffffffffffffff168173ffffffffffffffffffffffffffffffffffffffff167f8be0079c531659141344cd1fd0a4f28419497f9722a3daafe3b4186f6b6457e060405160405180910390a35050565b600260005403611408576040517f3ee5aeb500000000000000000000000000000000000000000000000000000000815260040160405180910390fd5b6002600081905550565b60008261141f858461143b565b1490509392505050565b6001600081905550565b600033905090565b60008082905060005b845181101561148657611471828683815181106114645761146361243f565b5b6020026020010151611491565b9150808061147e9061246e565b915050611444565b508091505092915050565b60008183106114a9576114a482846114bc565b6114b4565b6114b383836114bc565b5b905092915050565b600082600052816020526040600020905092915050565b6000604051905090565b600080fd5b600080fd5b600073ffffffffffffffffffffffffffffffffffffffff82169050919050565b6000611512826114e7565b9050919050565b61152281611507565b811461152d57600080fd5b50565b60008135905061153f81611519565b92915050565b60006020828403121561155b5761155a6114dd565b5b600061156984828501611530565b91505092915050565b60008115159050919050565b61158781611572565b82525050565b60006020820190506115a2600083018461157e565b92915050565b6000819050919050565b6115bb816115a8565b82525050565b60006020820190506115d660008301846115b2565b92915050565b6115e5816115a8565b81146115f057600080fd5b50565b600081359050611602816115dc565b92915050565b60006020828403121561161e5761161d6114dd565b5b600061162c848285016115f3565b91505092915050565b600081519050919050565b600082825260208201905092915050565b60005b8381101561166f578082015181840152602081019050611654565b60008484015250505050565b6000601f19601f8301169050919050565b600061169782611635565b6116a18185611640565b93506116b1818560208601611651565b6116ba8161167b565b840191505092915050565b600060208201905081810360008301526116df818461168c565b905092915050565b6116f081611507565b82525050565b600060208201905061170b60008301846116e7565b92915050565b600080fd5b600080fd5b7f4e487b7100000000000000000000000000000000000000000000000000000000600052604160045260246000fd5b6117538261167b565b810181811067ffffffffffffffff821117156117725761177161171b565b5b80604052505050565b60006117856114d3565b9050611791828261174a565b919050565b600067ffffffffffffffff8211156117b1576117b061171b565b5b6117ba8261167b565b9050602081019050919050565b82818337600083830152505050565b60006117e96117e484611796565b61177b565b90508281526020810184848401111561180557611804611716565b5b6118108482856117c7565b509392505050565b600082601f83011261182d5761182c611711565b5b813561183d8482602086016117d6565b91505092915050565b600080fd5b600080fd5b60008083601f84011261186657611865611711565b5b8235905067ffffffffffffffff81111561188357611882611846565b5b60208301915083602082028301111561189f5761189e61184b565b5b9250929050565b6000806000604084860312156118bf576118be6114dd565b5b600084013567ffffffffffffffff8111156118dd576118dc6114e2565b5b6118e986828701611818565b935050602084013567ffffffffffffffff81111561190a576119096114e2565b5b61191686828701611850565b92509250509250925092565b6000819050919050565b600061194761194261193d846114e7565b611922565b6114e7565b9050919050565b60006119598261192c565b9050919050565b600061196b8261194e565b9050919050565b61197b81611960565b82525050565b60006020820190506119966000830184611972565b92915050565b6000819050919050565b6119af8161199c565b82525050565b60006020820190506119ca60008301846119a6565b92915050565b7f436f6e7472616374206973206c6f636b65642e00000000000000000000000000600082015250565b6000611a06601383611640565b9150611a11826119d0565b602082019050919050565b60006020820190508181036000830152611a35816119f9565b9050919050565b7f436f6e7472616374206973206c6f636b656420696e207065727065747569747960008201527f2e00000000000000000000000000000000000000000000000000000000000000602082015250565b6000611a98602183611640565b9150611aa382611a3c565b604082019050919050565b60006020820190508181036000830152611ac781611a8b565b9050919050565b7f4d756c7469207369676e61747572652077616c6c6574206e6f74207365742e00600082015250565b6000611b04601f83611640565b9150611b0f82611ace565b602082019050919050565b60006020820190508181036000830152611b3381611af7565b9050919050565b600081905092915050565b50565b6000611b55600083611b3a565b9150611b6082611b45565b600082019050919050565b6000611b7682611b48565b9150819050919050565b7f4661696c656420746f2073656e64204574686572000000000000000000000000600082015250565b6000611bb6601483611640565b9150611bc182611b80565b602082019050919050565b60006020820190508181036000830152611be581611ba9565b9050919050565b7f4e487b7100000000000000000000000000000000000000000000000000000000600052602260045260246000fd5b60006002820490506001821680611c3357607f821691505b602082108103611c4657611c45611bec565b5b50919050565b7f496e76616c696420616464726573732e00000000000000000000000000000000600082015250565b6000611c82601083611640565b9150611c8d82611c4c565b602082019050919050565b60006020820190508181036000830152611cb181611c75565b9050919050565b7f526566756e64206973206e6f74206163746976652e0000000000000000000000600082015250565b6000611cee601583611640565b9150611cf982611cb8565b602082019050919050565b60006020820190508181036000830152611d1d81611ce1565b9050919050565b7f436f6e74726163742062616c616e6365206973207a65726f2e00000000000000600082015250565b6000611d5a601983611640565b9150611d6582611d24565b602082019050919050565b60006020820190508181036000830152611d8981611d4d565b9050919050565b7f596f75206861766520616c726561647920636c61696d656420796f757220455460008201527f482e000000000000000000000000000000000000000000000000000000000000602082015250565b6000611dec602283611640565b9150611df782611d90565b604082019050919050565b60006020820190508181036000830152611e1b81611ddf565b9050919050565b7f4f726967696e616c2062616c616e6365206973207a65726f2e00000000000000600082015250565b6000611e58601983611640565b9150611e6382611e22565b602082019050919050565b60006020820190508181036000830152611e8781611e4b565b9050919050565b611e978161199c565b8114611ea257600080fd5b50565b600081519050611eb481611e8e565b92915050565b600060208284031215611ed057611ecf6114dd565b5b6000611ede84828501611ea5565b91505092915050565b7f4e6f204e46547320666f756e6420696e2074686520636f6e74726163742e0000600082015250565b6000611f1d601e83611640565b9150611f2882611ee7565b602082019050919050565b60006020820190508181036000830152611f4c81611f10565b9050919050565b7f557365722062616c616e6365206f66204e4654206973207a65726f2e00000000600082015250565b6000611f89601c83611640565b9150611f9482611f53565b602082019050919050565b60006020820190508181036000830152611fb881611f7c565b9050919050565b7f4e487b7100000000000000000000000000000000000000000000000000000000600052601160045260246000fd5b6000611ff98261199c565b91506120048361199c565b92508282026120128161199c565b9150828204841483151761202957612028611fbf565b5b5092915050565b7f4e487b7100000000000000000000000000000000000000000000000000000000600052601260045260246000fd5b600061206a8261199c565b91506120758361199c565b92508261208557612084612030565b5b828204905092915050565b7f55736572207368617265206973207a65726f2e00000000000000000000000000600082015250565b60006120c6601383611640565b91506120d182612090565b602082019050919050565b600060208201905081810360008301526120f5816120b9565b9050919050565b60008160601b9050919050565b6000612114826120fc565b9050919050565b600061212682612109565b9050919050565b61213e61213982611507565b61211b565b82525050565b6000612150828461212d565b60148201915081905092915050565b7f496e76616c69642070726f6f662e000000000000000000000000000000000000600082015250565b6000612195600e83611640565b91506121a08261215f565b602082019050919050565b600060208201905081810360008301526121c481612188565b9050919050565b60008190508160005260206000209050919050565b60006020601f8301049050919050565b600082821b905092915050565b60006008830261222d7fffffffffffffffffffffffffffffffffffffffffffffffffffffffffffffffff826121f0565b61223786836121f0565b95508019841693508086168417925050509392505050565b600061226a6122656122608461199c565b611922565b61199c565b9050919050565b6000819050919050565b6122848361224f565b61229861229082612271565b8484546121fd565b825550505050565b600090565b6122ad6122a0565b6122b881848461227b565b505050565b5b818110156122dc576122d16000826122a5565b6001810190506122be565b5050565b601f821115612321576122f2816121cb565b6122fb846121e0565b8101602085101561230a578190505b61231e612316856121e0565b8301826122bd565b50505b505050565b600082821c905092915050565b600061234460001984600802612326565b1980831691505092915050565b600061235d8383612333565b9150826002028217905092915050565b61237682611635565b67ffffffffffffffff81111561238f5761238e61171b565b5b6123998254611c1b565b6123a48282856122e0565b600060209050601f8311600181146123d757600084156123c5578287015190505b6123cf8582612351565b865550612437565b601f1984166123e5866121cb565b60005b8281101561240d578489015182556001820191506020850194506020810190506123e8565b8683101561242a5784890151612426601f891682612333565b8355505b6001600288020188555050505b505050505050565b7f4e487b7100000000000000000000000000000000000000000000000000000000600052603260045260246000fd5b60006124798261199c565b91507fffffffffffffffffffffffffffffffffffffffffffffffffffffffffffffffff82036124ab576124aa611fbf565b5b60018201905091905056fea264697066735822122064f0a796cf827d0a31a48d71cd97e3b0cac708728396fa5efa83ab83ebb39fba64736f6c63430008140033",
  "linkReferences": {},
  "deployedLinkReferences": {}
}